{"abi":[{"type":"function","name":"target","inputs":[],"outputs":[],"stateMutability":"nonpayable"},{"type":"function","name":"targetRevert","inputs":[],"outputs":[],"stateMutability":"pure"},{"type":"event","name":"Target","inputs":[{"name":"from","type":"address","indexed":true,"internalType":"address"}],"anonymous":false},{"type":"error","name":"TargetRevert","inputs":[]}],"bytecode":{"object":"0x6080604052348015600e575f5ffd5b5060f18061001b5f395ff3fe6080604052348015600e575f5ffd5b50600436106030575f3560e01c806330bd215a146034578063d4b8399214603c575b5f5ffd5b603a6044565b005b60426076565b005b6040517f6aa2920a00000000000000000000000000000000000000000000000000000000815260040160405180910390fd5b3373ffffffffffffffffffffffffffffffffffffffff167ff3a1fccdf4778ea6c44fd680f7bdbf5d53a02733614e6e82354bfcb238eb611a60405160405180910390a256fea2646970667358221220e6663fc9442e051e330113f94b0dfce23d1866ebc8fedc57a348ae8fb567c54664736f6c634300081d0033","linkReferences":{}},"methodIdentifiers":{"target()":"d4b83992","targetRevert()":"30bd215a"},"id":21}