{"abi":[{"type":"function","name":"deployAccount","inputs":[{"name":"_owner","type":"address","internalType":"address"}],"outputs":[{"name":"","type":"address","internalType":"address"}],"stateMutability":"nonpayable"},{"type":"function","name":"smplifyAccount","inputs":[],"outputs":[{"name":"","type":"address","internalType":"contract SmplifyAccount"}],"stateMutability":"view"}],"bytecode":{"object":"0x6080604052348015600e575f5ffd5b506112b28061001c5f395ff3fe608060405234801561000f575f5ffd5b5060043610610034575f3560e01c8063da9fc1ae14610038578063f9047c9614610068575b5f5ffd5b610052600480360381019061004d91906101ad565b610086565b60405161005f91906101e7565b60405180910390f35b61007061011e565b60405161007d919061025b565b60405180910390f35b5f8160405161009490610142565b61009e91906101e7565b604051809103905ff0801580156100b7573d5f5f3e3d5ffd5b505f5f6101000a81548173ffffffffffffffffffffffffffffffffffffffff021916908373ffffffffffffffffffffffffffffffffffffffff1602179055505f5f9054906101000a900473ffffffffffffffffffffffffffffffffffffffff169050919050565b5f5f9054906101000a900473ffffffffffffffffffffffffffffffffffffffff1681565b6110088061027583390190565b5f5ffd5b5f73ffffffffffffffffffffffffffffffffffffffff82169050919050565b5f61017c82610153565b9050919050565b61018c81610172565b8114610196575f5ffd5b50565b5f813590506101a781610183565b92915050565b5f602082840312156101c2576101c161014f565b5b5f6101cf84828501610199565b91505092915050565b6101e181610172565b82525050565b5f6020820190506101fa5f8301846101d8565b92915050565b5f819050919050565b5f61022361021e61021984610153565b610200565b610153565b9050919050565b5f61023482610209565b9050919050565b5f6102458261022a565b9050919050565b6102558161023b565b82525050565b5f60208201905061026e5f83018461024c565b9291505056fe60a060405234801561000f575f5ffd5b50604051611008380380611008833981810160405281019061003191906100c9565b8073ffffffffffffffffffffffffffffffffffffffff1660808173ffffffffffffffffffffffffffffffffffffffff1681525050506100f4565b5f5ffd5b5f73ffffffffffffffffffffffffffffffffffffffff82169050919050565b5f6100988261006f565b9050919050565b6100a88161008e565b81146100b2575f5ffd5b50565b5f815190506100c38161009f565b92915050565b5f602082840312156100de576100dd61006b565b5b5f6100eb848285016100b5565b91505092915050565b608051610ee76101215f395f8181610100015281816103680152818161057c01526107970152610ee75ff3fe60806040526004361061003e575f3560e01c8063174dea7114610042578063252dba421461007257806382ad56cb146100a25780638da5cb5b146100d2575b5f5ffd5b61005c6004803603810190610057919061083d565b6100fc565b6040516100699190610a07565b60405180910390f35b61008c60048036038101906100879190610a7c565b610364565b6040516100999190610b82565b60405180910390f35b6100bc60048036038101906100b79190610bf7565b610578565b6040516100c99190610a07565b60405180910390f35b3480156100dd575f5ffd5b506100e6610795565b6040516100f39190610c81565b60405180910390f35b60607f000000000000000000000000000000000000000000000000000000000000000073ffffffffffffffffffffffffffffffffffffffff163373ffffffffffffffffffffffffffffffffffffffff1614610183576040517f82b4290000000000000000000000000000000000000000000000000000000000815260040160405180910390fd5b5f5f8484905090508067ffffffffffffffff8111156101a5576101a4610c9a565b5b6040519080825280602002602001820160405280156101de57816020015b6101cb6107b9565b8152602001906001900390816101c35790505b509250365f5f90505b82811015610321575f85828151811061020357610202610cc7565b5b602002602001015190508787838181106102205761021f610cc7565b5b90506020028101906102329190610d00565b92505f836040013590508086019550835f0160208101906102539190610d51565b73ffffffffffffffffffffffffffffffffffffffff168185806060019061027a9190610d7c565b604051610288929190610e1a565b5f6040518083038185875af1925050503d805f81146102c2576040519150601f19603f3d011682016040523d82523d5f602084013e6102c7565b606091505b50835f0184602001829052821515151581525050508151602085013517610314577f794acc47000000000000000000000000000000000000000000000000000000005f528260045260485ffd5b82600101925050506101e7565b5082341461035b576040517fd020f61e00000000000000000000000000000000000000000000000000000000815260040160405180910390fd5b50505092915050565b60607f000000000000000000000000000000000000000000000000000000000000000073ffffffffffffffffffffffffffffffffffffffff163373ffffffffffffffffffffffffffffffffffffffff16146103eb576040517f82b4290000000000000000000000000000000000000000000000000000000000815260040160405180910390fd5b5f8383905090508067ffffffffffffffff81111561040c5761040b610c9a565b5b60405190808252806020026020018201604052801561043f57816020015b606081526020019060019003908161042a5790505b509150365f5f90505b8281101561056f575f86868381811061046457610463610cc7565b5b90506020028101906104769190610e32565b9250825f01602081019061048a9190610d51565b73ffffffffffffffffffffffffffffffffffffffff168380602001906104b09190610d7c565b6040516104be929190610e1a565b5f604051808303815f865af19150503d805f81146104f7576040519150601f19603f3d011682016040523d82523d5f602084013e6104fc565b606091505b508684815181106105105761050f610cc7565b5b602002602001018190528192505050808290610562576040517f794acc470000000000000000000000000000000000000000000000000000000081526004016105599190610e71565b60405180910390fd5b5081600101915050610448565b50505092915050565b60607f000000000000000000000000000000000000000000000000000000000000000073ffffffffffffffffffffffffffffffffffffffff163373ffffffffffffffffffffffffffffffffffffffff16146105ff576040517f82b4290000000000000000000000000000000000000000000000000000000000815260040160405180910390fd5b5f8383905090508067ffffffffffffffff8111156106205761061f610c9a565b5b60405190808252806020026020018201604052801561065957816020015b6106466107b9565b81526020019060019003908161063e5790505b509150365f5f90505b8281101561078c575f84828151811061067e5761067d610cc7565b5b6020026020010151905086868381811061069b5761069a610cc7565b5b90506020028101906106ad9190610e8a565b9250825f0160208101906106c19190610d51565b73ffffffffffffffffffffffffffffffffffffffff168380604001906106e79190610d7c565b6040516106f5929190610e1a565b5f604051808303815f865af19150503d805f811461072e576040519150601f19603f3d011682016040523d82523d5f602084013e610733565b606091505b50825f0183602001829052821515151581525050508051602084013517610780577f794acc47000000000000000000000000000000000000000000000000000000005f528160045260485ffd5b81600101915050610662565b50505092915050565b7f000000000000000000000000000000000000000000000000000000000000000081565b60405180604001604052805f15158152602001606081525090565b5f5ffd5b5f5ffd5b5f5ffd5b5f5ffd5b5f5ffd5b5f5f83601f8401126107fd576107fc6107dc565b5b8235905067ffffffffffffffff81111561081a576108196107e0565b5b602083019150836020820283011115610836576108356107e4565b5b9250929050565b5f5f60208385031215610853576108526107d4565b5b5f83013567ffffffffffffffff8111156108705761086f6107d8565b5b61087c858286016107e8565b92509250509250929050565b5f81519050919050565b5f82825260208201905092915050565b5f819050602082019050919050565b5f8115159050919050565b6108c5816108b1565b82525050565b5f81519050919050565b5f82825260208201905092915050565b8281835e5f83830152505050565b5f601f19601f8301169050919050565b5f61090d826108cb565b61091781856108d5565b93506109278185602086016108e5565b610930816108f3565b840191505092915050565b5f604083015f8301516109505f8601826108bc565b50602083015184820360208601526109688282610903565b9150508091505092915050565b5f610980838361093b565b905092915050565b5f602082019050919050565b5f61099e82610888565b6109a88185610892565b9350836020820285016109ba856108a2565b805f5b858110156109f557848403895281516109d68582610975565b94506109e183610988565b925060208a019950506001810190506109bd565b50829750879550505050505092915050565b5f6020820190508181035f830152610a1f8184610994565b905092915050565b5f5f83601f840112610a3c57610a3b6107dc565b5b8235905067ffffffffffffffff811115610a5957610a586107e0565b5b602083019150836020820283011115610a7557610a746107e4565b5b9250929050565b5f5f60208385031215610a9257610a916107d4565b5b5f83013567ffffffffffffffff811115610aaf57610aae6107d8565b5b610abb85828601610a27565b92509250509250929050565b5f81519050919050565b5f82825260208201905092915050565b5f819050602082019050919050565b5f610afb8383610903565b905092915050565b5f602082019050919050565b5f610b1982610ac7565b610b238185610ad1565b935083602082028501610b3585610ae1565b805f5b85811015610b705784840389528151610b518582610af0565b9450610b5c83610b03565b925060208a01995050600181019050610b38565b50829750879550505050505092915050565b5f6020820190508181035f830152610b9a8184610b0f565b905092915050565b5f5f83601f840112610bb757610bb66107dc565b5b8235905067ffffffffffffffff811115610bd457610bd36107e0565b5b602083019150836020820283011115610bf057610bef6107e4565b5b9250929050565b5f5f60208385031215610c0d57610c0c6107d4565b5b5f83013567ffffffffffffffff811115610c2a57610c296107d8565b5b610c3685828601610ba2565b92509250509250929050565b5f73ffffffffffffffffffffffffffffffffffffffff82169050919050565b5f610c6b82610c42565b9050919050565b610c7b81610c61565b82525050565b5f602082019050610c945f830184610c72565b92915050565b7f4e487b71000000000000000000000000000000000000000000000000000000005f52604160045260245ffd5b7f4e487b71000000000000000000000000000000000000000000000000000000005f52603260045260245ffd5b5f5ffd5b5f5ffd5b5f5ffd5b5f82356001608003833603038112610d1b57610d1a610cf4565b5b80830191505092915050565b610d3081610c61565b8114610d3a575f5ffd5b50565b5f81359050610d4b81610d27565b92915050565b5f60208284031215610d6657610d656107d4565b5b5f610d7384828501610d3d565b91505092915050565b5f5f83356001602003843603038112610d9857610d97610cf4565b5b80840192508235915067ffffffffffffffff821115610dba57610db9610cf8565b5b602083019250600182023603831315610dd657610dd5610cfc565b5b509250929050565b5f81905092915050565b828183375f83830152505050565b5f610e018385610dde565b9350610e0e838584610de8565b82840190509392505050565b5f610e26828486610df6565b91508190509392505050565b5f82356001604003833603038112610e4d57610e4c610cf4565b5b80830191505092915050565b5f819050919050565b610e6b81610e59565b82525050565b5f602082019050610e845f830184610e62565b92915050565b5f82356001606003833603038112610ea557610ea4610cf4565b5b8083019150509291505056fea26469706673582212208b13800cb08ac99d5ad71c3337b3359093913a7940c825cbd29fe06f37a6915a64736f6c634300081d0033a264697066735822122055ea34775e0bc1a9c20b50a1054ba6e5a11fdaba22a4aa145a32cda27a6a795964736f6c634300081d0033","linkReferences":{}},"methodIdentifiers":{"deployAccount(address)":"da9fc1ae","smplifyAccount()":"f9047c96"},"id":20}